{
	"data": {
		"bytecode": {
			"linkReferences": {},
			"object": "6000805460ff60a01b1916905560c060405260086080819052676d79537472696e6760c01b60a0908152610036916002919061008c565b5034801561004357600080fd5b5060405161022e38038061022e8339818101604052602081101561006657600080fd5b5051600080546001600160a01b0319166001600160a01b0390921691909117905561012d565b828054600181600116156101000203166002900490600052602060002090601f0160209004810192826100c25760008555610108565b82601f106100db57805160ff1916838001178555610108565b82800160010185558215610108579182015b828111156101085782518255916020019190600101906100ed565b50610114929150610118565b5090565b5b808211156101145760008155600101610119565b60f38061013b6000396000f3fe6080604052348015600f57600080fd5b5060043610603c5760003560e01c8063113a72c01460415780636deecdbe14605f57806376fe0b47146079575b600080fd5b605d60048036036020811015605557600080fd5b50351515607f565b005b6065609d565b604080519115158252519081900360200190f35b606560ad565b60008054911515600160a01b0260ff60a01b19909216919091179055565b600054600160a01b900460ff1681565b600054600160a01b900460ff169056fea2646970667358221220746501d7364739fcf596aa87ae3b29f7de6c74dae316864ba2501d577cd7d9e564736f6c63430007040033",
			"opcodes": "PUSH1 0x0 DUP1 SLOAD PUSH1 0xFF PUSH1 0xA0 SHL NOT AND SWAP1 SSTORE PUSH1 0xC0 PUSH1 0x40 MSTORE PUSH1 0x8 PUSH1 0x80 DUP2 SWAP1 MSTORE PUSH8 0x6D79537472696E67 PUSH1 0xC0 SHL PUSH1 0xA0 SWAP1 DUP2 MSTORE PUSH2 0x36 SWAP2 PUSH1 0x2 SWAP2 SWAP1 PUSH2 0x8C JUMP JUMPDEST POP CALLVALUE DUP1 ISZERO PUSH2 0x43 JUMPI PUSH1 0x0 DUP1 REVERT JUMPDEST POP PUSH1 0x40 MLOAD PUSH2 0x22E CODESIZE SUB DUP1 PUSH2 0x22E DUP4 CODECOPY DUP2 DUP2 ADD PUSH1 0x40 MSTORE PUSH1 0x20 DUP2 LT ISZERO PUSH2 0x66 JUMPI PUSH1 0x0 DUP1 REVERT JUMPDEST POP MLOAD PUSH1 0x0 DUP1 SLOAD PUSH1 0x1 PUSH1 0x1 PUSH1 0xA0 SHL SUB NOT AND PUSH1 0x1 PUSH1 0x1 PUSH1 0xA0 SHL SUB SWAP1 SWAP3 AND SWAP2 SWAP1 SWAP2 OR SWAP1 SSTORE PUSH2 0x12D JUMP JUMPDEST DUP3 DUP1 SLOAD PUSH1 0x1 DUP2 PUSH1 0x1 AND ISZERO PUSH2 0x100 MUL SUB AND PUSH1 0x2 SWAP1 DIV SWAP1 PUSH1 0x0 MSTORE PUSH1 0x20 PUSH1 0x0 KECCAK256 SWAP1 PUSH1 0x1F ADD PUSH1 0x20 SWAP1 DIV DUP2 ADD SWAP3 DUP3 PUSH2 0xC2 JUMPI PUSH1 0x0 DUP6 SSTORE PUSH2 0x108 JUMP JUMPDEST DUP3 PUSH1 0x1F LT PUSH2 0xDB JUMPI DUP1 MLOAD PUSH1 0xFF NOT AND DUP4 DUP1 ADD OR DUP6 SSTORE PUSH2 0x108 JUMP JUMPDEST DUP3 DUP1 ADD PUSH1 0x1 ADD DUP6 SSTORE DUP3 ISZERO PUSH2 0x108 JUMPI SWAP2 DUP3 ADD JUMPDEST DUP3 DUP2 GT ISZERO PUSH2 0x108 JUMPI DUP3 MLOAD DUP3 SSTORE SWAP2 PUSH1 0x20 ADD SWAP2 SWAP1 PUSH1 0x1 ADD SWAP1 PUSH2 0xED JUMP JUMPDEST POP PUSH2 0x114 SWAP3 SWAP2 POP PUSH2 0x118 JUMP JUMPDEST POP SWAP1 JUMP JUMPDEST JUMPDEST DUP1 DUP3 GT ISZERO PUSH2 0x114 JUMPI PUSH1 0x0 DUP2 SSTORE PUSH1 0x1 ADD PUSH2 0x119 JUMP JUMPDEST PUSH1 0xF3 DUP1 PUSH2 0x13B PUSH1 0x0 CODECOPY PUSH1 0x0 RETURN INVALID PUSH1 0x80 PUSH1 0x40 MSTORE CALLVALUE DUP1 ISZERO PUSH1 0xF JUMPI PUSH1 0x0 DUP1 REVERT JUMPDEST POP PUSH1 0x4 CALLDATASIZE LT PUSH1 0x3C JUMPI PUSH1 0x0 CALLDATALOAD PUSH1 0xE0 SHR DUP1 PUSH4 0x113A72C0 EQ PUSH1 0x41 JUMPI DUP1 PUSH4 0x6DEECDBE EQ PUSH1 0x5F JUMPI DUP1 PUSH4 0x76FE0B47 EQ PUSH1 0x79 JUMPI JUMPDEST PUSH1 0x0 DUP1 REVERT JUMPDEST PUSH1 0x5D PUSH1 0x4 DUP1 CALLDATASIZE SUB PUSH1 0x20 DUP2 LT ISZERO PUSH1 0x55 JUMPI PUSH1 0x0 DUP1 REVERT JUMPDEST POP CALLDATALOAD ISZERO ISZERO PUSH1 0x7F JUMP JUMPDEST STOP JUMPDEST PUSH1 0x65 PUSH1 0x9D JUMP JUMPDEST PUSH1 0x40 DUP1 MLOAD SWAP2 ISZERO ISZERO DUP3 MSTORE MLOAD SWAP1 DUP2 SWAP1 SUB PUSH1 0x20 ADD SWAP1 RETURN JUMPDEST PUSH1 0x65 PUSH1 0xAD JUMP JUMPDEST PUSH1 0x0 DUP1 SLOAD SWAP2 ISZERO ISZERO PUSH1 0x1 PUSH1 0xA0 SHL MUL PUSH1 0xFF PUSH1 0xA0 SHL NOT SWAP1 SWAP3 AND SWAP2 SWAP1 SWAP2 OR SWAP1 SSTORE JUMP JUMPDEST PUSH1 0x0 SLOAD PUSH1 0x1 PUSH1 0xA0 SHL SWAP1 DIV PUSH1 0xFF AND DUP2 JUMP JUMPDEST PUSH1 0x0 SLOAD PUSH1 0x1 PUSH1 0xA0 SHL SWAP1 DIV PUSH1 0xFF AND SWAP1 JUMP INVALID LOG2 PUSH5 0x6970667358 0x22 SLT KECCAK256 PUSH21 0x6501D7364739FCF596AA87AE3B29F7DE6C74DAE316 DUP7 0x4B LOG2 POP SAR JUMPI PUSH29 0xD7D9E564736F6C63430007040033000000000000000000000000000000 "
		},
		"gasEstimates": {
			"creation": {
				"codeDepositCost": "48600",
				"executionCost": "infinite",
				"totalCost": "infinite"
			},
			"external": {
				"getMyBoolean()": "1049",
				"myBool()": "1027",
				"setMyBoolean(bool)": "21035"
			}
		},
		"methodIdentifiers": {
			"getMyBoolean()": "76fe0b47",
			"myBool()": "6deecdbe",
			"setMyBoolean(bool)": "113a72c0"
		}
	},
	"abi": [
		{
			"inputs": [
				{
					"internalType": "address",
					"name": "myAddressArg",
					"type": "address"
				}
			],
			"stateMutability": "nonpayable",
			"type": "constructor"
		},
		{
			"inputs": [],
			"name": "getMyBoolean",
			"outputs": [
				{
					"internalType": "bool",
					"name": "",
					"type": "bool"
				}
			],
			"stateMutability": "view",
			"type": "function"
		},
		{
			"inputs": [],
			"name": "myBool",
			"outputs": [
				{
					"internalType": "bool",
					"name": "",
					"type": "bool"
				}
			],
			"stateMutability": "view",
			"type": "function"
		},
		{
			"inputs": [
				{
					"internalType": "bool",
					"name": "myBoolArg",
					"type": "bool"
				}
			],
			"name": "setMyBoolean",
			"outputs": [],
			"stateMutability": "nonpayable",
			"type": "function"
		}
	]
}