{
	"data": {
		"bytecode": {
			"linkReferences": {},
			"object": "608060405260008060146101000a81548160ff0219169083151502179055506040518060400160405280600881526020017f6d79537472696e67000000000000000000000000000000000000000000000000815250600290805190602001906100699291906100f0565b5034801561007657600080fd5b506040516102d03803806102d08339818101604052602081101561009957600080fd5b8101908080519060200190929190505050806000806101000a81548173ffffffffffffffffffffffffffffffffffffffff021916908373ffffffffffffffffffffffffffffffffffffffff1602179055505061019b565b828054600181600116156101000203166002900490600052602060002090601f016020900481019282610126576000855561016d565b82601f1061013f57805160ff191683800117855561016d565b8280016001018555821561016d579182015b8281111561016c578251825591602001919060010190610151565b5b50905061017a919061017e565b5090565b5b8082111561019757600081600090555060010161017f565b5090565b610126806101aa6000396000f3fe6080604052348015600f57600080fd5b5060043610603c5760003560e01c8063113a72c01460415780636deecdbe14606e57806376fe0b4714608c575b600080fd5b606c60048036036020811015605557600080fd5b8101908080351515906020019092919050505060aa565b005b607460c7565b60405180821515815260200191505060405180910390f35b609260da565b60405180821515815260200191505060405180910390f35b80600060146101000a81548160ff02191690831515021790555050565b600060149054906101000a900460ff1681565b60008060149054906101000a900460ff1690509056fea264697066735822122033efa3f8272ff44d35ad5fe7cdb87dec379d428adf5577d8aeace1a7b1022b5664736f6c63430007040033",
			"opcodes": "PUSH1 0x80 PUSH1 0x40 MSTORE PUSH1 0x0 DUP1 PUSH1 0x14 PUSH2 0x100 EXP DUP2 SLOAD DUP2 PUSH1 0xFF MUL NOT AND SWAP1 DUP4 ISZERO ISZERO MUL OR SWAP1 SSTORE POP PUSH1 0x40 MLOAD DUP1 PUSH1 0x40 ADD PUSH1 0x40 MSTORE DUP1 PUSH1 0x8 DUP2 MSTORE PUSH1 0x20 ADD PUSH32 0x6D79537472696E67000000000000000000000000000000000000000000000000 DUP2 MSTORE POP PUSH1 0x2 SWAP1 DUP1 MLOAD SWAP1 PUSH1 0x20 ADD SWAP1 PUSH2 0x69 SWAP3 SWAP2 SWAP1 PUSH2 0xF0 JUMP JUMPDEST POP CALLVALUE DUP1 ISZERO PUSH2 0x76 JUMPI PUSH1 0x0 DUP1 REVERT JUMPDEST POP PUSH1 0x40 MLOAD PUSH2 0x2D0 CODESIZE SUB DUP1 PUSH2 0x2D0 DUP4 CODECOPY DUP2 DUP2 ADD PUSH1 0x40 MSTORE PUSH1 0x20 DUP2 LT ISZERO PUSH2 0x99 JUMPI PUSH1 0x0 DUP1 REVERT JUMPDEST DUP2 ADD SWAP1 DUP1 DUP1 MLOAD SWAP1 PUSH1 0x20 ADD SWAP1 SWAP3 SWAP2 SWAP1 POP POP POP DUP1 PUSH1 0x0 DUP1 PUSH2 0x100 EXP DUP2 SLOAD DUP2 PUSH20 0xFFFFFFFFFFFFFFFFFFFFFFFFFFFFFFFFFFFFFFFF MUL NOT AND SWAP1 DUP4 PUSH20 0xFFFFFFFFFFFFFFFFFFFFFFFFFFFFFFFFFFFFFFFF AND MUL OR SWAP1 SSTORE POP POP PUSH2 0x19B JUMP JUMPDEST DUP3 DUP1 SLOAD PUSH1 0x1 DUP2 PUSH1 0x1 AND ISZERO PUSH2 0x100 MUL SUB AND PUSH1 0x2 SWAP1 DIV SWAP1 PUSH1 0x0 MSTORE PUSH1 0x20 PUSH1 0x0 KECCAK256 SWAP1 PUSH1 0x1F ADD PUSH1 0x20 SWAP1 DIV DUP2 ADD SWAP3 DUP3 PUSH2 0x126 JUMPI PUSH1 0x0 DUP6 SSTORE PUSH2 0x16D JUMP JUMPDEST DUP3 PUSH1 0x1F LT PUSH2 0x13F JUMPI DUP1 MLOAD PUSH1 0xFF NOT AND DUP4 DUP1 ADD OR DUP6 SSTORE PUSH2 0x16D JUMP JUMPDEST DUP3 DUP1 ADD PUSH1 0x1 ADD DUP6 SSTORE DUP3 ISZERO PUSH2 0x16D JUMPI SWAP2 DUP3 ADD JUMPDEST DUP3 DUP2 GT ISZERO PUSH2 0x16C JUMPI DUP3 MLOAD DUP3 SSTORE SWAP2 PUSH1 0x20 ADD SWAP2 SWAP1 PUSH1 0x1 ADD SWAP1 PUSH2 0x151 JUMP JUMPDEST JUMPDEST POP SWAP1 POP PUSH2 0x17A SWAP2 SWAP1 PUSH2 0x17E JUMP JUMPDEST POP SWAP1 JUMP JUMPDEST JUMPDEST DUP1 DUP3 GT ISZERO PUSH2 0x197 JUMPI PUSH1 0x0 DUP2 PUSH1 0x0 SWAP1 SSTORE POP PUSH1 0x1 ADD PUSH2 0x17F JUMP JUMPDEST POP SWAP1 JUMP JUMPDEST PUSH2 0x126 DUP1 PUSH2 0x1AA PUSH1 0x0 CODECOPY PUSH1 0x0 RETURN INVALID PUSH1 0x80 PUSH1 0x40 MSTORE CALLVALUE DUP1 ISZERO PUSH1 0xF JUMPI PUSH1 0x0 DUP1 REVERT JUMPDEST POP PUSH1 0x4 CALLDATASIZE LT PUSH1 0x3C JUMPI PUSH1 0x0 CALLDATALOAD PUSH1 0xE0 SHR DUP1 PUSH4 0x113A72C0 EQ PUSH1 0x41 JUMPI DUP1 PUSH4 0x6DEECDBE EQ PUSH1 0x6E JUMPI DUP1 PUSH4 0x76FE0B47 EQ PUSH1 0x8C JUMPI JUMPDEST PUSH1 0x0 DUP1 REVERT JUMPDEST PUSH1 0x6C PUSH1 0x4 DUP1 CALLDATASIZE SUB PUSH1 0x20 DUP2 LT ISZERO PUSH1 0x55 JUMPI PUSH1 0x0 DUP1 REVERT JUMPDEST DUP2 ADD SWAP1 DUP1 DUP1 CALLDATALOAD ISZERO ISZERO SWAP1 PUSH1 0x20 ADD SWAP1 SWAP3 SWAP2 SWAP1 POP POP POP PUSH1 0xAA JUMP JUMPDEST STOP JUMPDEST PUSH1 0x74 PUSH1 0xC7 JUMP JUMPDEST PUSH1 0x40 MLOAD DUP1 DUP3 ISZERO ISZERO DUP2 MSTORE PUSH1 0x20 ADD SWAP2 POP POP PUSH1 0x40 MLOAD DUP1 SWAP2 SUB SWAP1 RETURN JUMPDEST PUSH1 0x92 PUSH1 0xDA JUMP JUMPDEST PUSH1 0x40 MLOAD DUP1 DUP3 ISZERO ISZERO DUP2 MSTORE PUSH1 0x20 ADD SWAP2 POP POP PUSH1 0x40 MLOAD DUP1 SWAP2 SUB SWAP1 RETURN JUMPDEST DUP1 PUSH1 0x0 PUSH1 0x14 PUSH2 0x100 EXP DUP2 SLOAD DUP2 PUSH1 0xFF MUL NOT AND SWAP1 DUP4 ISZERO ISZERO MUL OR SWAP1 SSTORE POP POP JUMP JUMPDEST PUSH1 0x0 PUSH1 0x14 SWAP1 SLOAD SWAP1 PUSH2 0x100 EXP SWAP1 DIV PUSH1 0xFF AND DUP2 JUMP JUMPDEST PUSH1 0x0 DUP1 PUSH1 0x14 SWAP1 SLOAD SWAP1 PUSH2 0x100 EXP SWAP1 DIV PUSH1 0xFF AND SWAP1 POP SWAP1 JUMP INVALID LOG2 PUSH5 0x6970667358 0x22 SLT KECCAK256 CALLER 0xEF LOG3 0xF8 0x27 0x2F DELEGATECALL 0x4D CALLDATALOAD 0xAD 0x5F 0xE7 0xCD 0xB8 PUSH30 0xEC379D428ADF5577D8AEACE1A7B1022B5664736F6C634300070400330000 "
		},
		"gasEstimates": {
			"creation": {
				"codeDepositCost": "58800",
				"executionCost": "infinite",
				"totalCost": "infinite"
			},
			"external": {
				"getMyBoolean()": "1127",
				"myBool()": "1097",
				"setMyBoolean(bool)": "21129"
			}
		},
		"methodIdentifiers": {
			"getMyBoolean()": "76fe0b47",
			"myBool()": "6deecdbe",
			"setMyBoolean(bool)": "113a72c0"
		}
	},
	"abi": [
		{
			"inputs": [
				{
					"internalType": "address",
					"name": "myAddressArg",
					"type": "address"
				}
			],
			"stateMutability": "nonpayable",
			"type": "constructor"
		},
		{
			"inputs": [],
			"name": "getMyBoolean",
			"outputs": [
				{
					"internalType": "bool",
					"name": "",
					"type": "bool"
				}
			],
			"stateMutability": "view",
			"type": "function"
		},
		{
			"inputs": [],
			"name": "myBool",
			"outputs": [
				{
					"internalType": "bool",
					"name": "",
					"type": "bool"
				}
			],
			"stateMutability": "view",
			"type": "function"
		},
		{
			"inputs": [
				{
					"internalType": "bool",
					"name": "myBoolArg",
					"type": "bool"
				}
			],
			"name": "setMyBoolean",
			"outputs": [],
			"stateMutability": "nonpayable",
			"type": "function"
		}
	]
}